{
  "contractName": "Election",
  "abi": [
    {
      "constant": true,
      "inputs": [
        {
          "name": "",
          "type": "uint256"
        }
      ],
      "name": "candidates",
      "outputs": [
        {
          "name": "id",
          "type": "uint256"
        },
        {
          "name": "name",
          "type": "string"
        },
        {
          "name": "voteCount",
          "type": "uint256"
        }
      ],
      "payable": false,
      "stateMutability": "view",
      "type": "function",
      "signature": "0x3477ee2e"
    },
    {
      "constant": true,
      "inputs": [],
      "name": "candidateCount",
      "outputs": [
        {
          "name": "",
          "type": "uint256"
        }
      ],
      "payable": false,
      "stateMutability": "view",
      "type": "function",
      "signature": "0xa9a981a3"
    },
    {
      "constant": true,
      "inputs": [
        {
          "name": "",
          "type": "address"
        }
      ],
      "name": "voter",
      "outputs": [
        {
          "name": "",
          "type": "bool"
        }
      ],
      "payable": false,
      "stateMutability": "view",
      "type": "function",
      "signature": "0xaf0dbe54"
    },
    {
      "inputs": [],
      "payable": false,
      "stateMutability": "nonpayable",
      "type": "constructor",
      "signature": "constructor"
    },
    {
      "anonymous": false,
      "inputs": [
        {
          "indexed": true,
          "name": "candidateid",
          "type": "uint256"
        }
      ],
      "name": "eventVote",
      "type": "event",
      "signature": "0x5190cbcb11a5b819d29d510204755e1304f26705e78d63e90e9befa7c78c164b"
    },
    {
      "constant": false,
      "inputs": [
        {
          "name": "candidateid",
          "type": "uint256"
        }
      ],
      "name": "addVote",
      "outputs": [],
      "payable": false,
      "stateMutability": "nonpayable",
      "type": "function",
      "signature": "0x0383badc"
    }
  ],
  "bytecode": "0x60806040526000805534801561001457600080fd5b506100626040805190810160405280600681526020017f4261746d616e00000000000000000000000000000000000000000000000000008152506100b4640100000000026401000000009004565b6100af6040805190810160405280600881526020017f53757065726d616e0000000000000000000000000000000000000000000000008152506100b4640100000000026401000000009004565b6101d4565b600080815480929190600101919050555060606040519081016040528060005481526020018281526020016000815250600160008054815260200190815260200160002060008201518160000155602082015181600101908051906020019061011e92919061012f565b506040820151816002015590505050565b828054600181600116156101000203166002900490600052602060002090601f016020900481019282601f1061017057805160ff191683800117855561019e565b8280016001018555821561019e579182015b8281111561019d578251825591602001919060010190610182565b5b5090506101ab91906101af565b5090565b6101d191905b808211156101cd5760008160009055506001016101b5565b5090565b90565b610430806101e36000396000f3fe608060405260043610610062576000357c0100000000000000000000000000000000000000000000000000000000900463ffffffff1680630383badc146100675780633477ee2e146100a2578063a9a981a314610164578063af0dbe541461018f575b600080fd5b34801561007357600080fd5b506100a06004803603602081101561008a57600080fd5b81019080803590602001909291905050506101f8565b005b3480156100ae57600080fd5b506100db600480360360208110156100c557600080fd5b810190808035906020019092919050505061031c565b6040518084815260200180602001838152602001828103825284818151815260200191508051906020019080838360005b8381101561012757808201518184015260208101905061010c565b50505050905090810190601f1680156101545780820380516001836020036101000a031916815260200191505b5094505050505060405180910390f35b34801561017057600080fd5b506101796103de565b6040518082815260200191505060405180910390f35b34801561019b57600080fd5b506101de600480360360208110156101b257600080fd5b81019080803573ffffffffffffffffffffffffffffffffffffffff1690602001909291905050506103e4565b604051808215151515815260200191505060405180910390f35b600260003373ffffffffffffffffffffffffffffffffffffffff1673ffffffffffffffffffffffffffffffffffffffff16815260200190815260200160002060009054906101000a900460ff1615151561025157600080fd5b60008111801561026357506000548111155b151561026e57600080fd5b6001600260003373ffffffffffffffffffffffffffffffffffffffff1673ffffffffffffffffffffffffffffffffffffffff16815260200190815260200160002060006101000a81548160ff0219169083151502179055506001600082815260200190815260200160002060020160008154809291906001019190505550807f5190cbcb11a5b819d29d510204755e1304f26705e78d63e90e9befa7c78c164b60405160405180910390a250565b6001602052806000526040600020600091509050806000015490806001018054600181600116156101000203166002900480601f0160208091040260200160405190810160405280929190818152602001828054600181600116156101000203166002900480156103ce5780601f106103a3576101008083540402835291602001916103ce565b820191906000526020600020905b8154815290600101906020018083116103b157829003601f168201915b5050505050908060020154905083565b60005481565b60026020528060005260406000206000915054906101000a900460ff168156fea165627a7a7230582022af2b403d641e860ed8df178031a999735282ee28136529b574ea5c1ae899dd0029",
  "source": "pragma solidity >=0.4.21 <0.7.0;\r\n\r\ncontract Election {\r\n\r\n    uint public candidateCount =0;\r\n\r\n    struct Candidate {\r\n        uint id;\r\n        string name;\r\n        uint voteCount;\r\n    }\r\n\r\n    mapping(uint => Candidate) public candidates;\r\n    mapping(address => bool) public voter;\r\n\r\n     constructor() public {\r\n        addCandidate('Batman'); \r\n        addCandidate('Superman');\r\n    }\r\n\r\n    event eventVote(\r\n\r\n        uint indexed candidateid\r\n    );\r\n\r\n    function addCandidate(string memory name) private{\r\n        candidateCount++;\r\n        candidates[candidateCount] = Candidate(candidateCount,name,0); \r\n    }\r\n    function addVote(uint candidateid) public { \r\n        require(!voter[msg.sender]);\r\n        require((candidateid > 0) && (candidateid <= candidateCount));\r\n        voter[msg.sender] = true;\r\n        candidates[candidateid].voteCount++;\r\n        emit eventVote(candidateid);    \r\n        }\r\n}\r\n\r\n",
  "sourcePath": "F:/Resume-Projects/eth-vote/eth-vote-source-code/contracts/Election.sol",
  "compiler": {
    "name": "solc",
    "version": "0.5.0+commit.1d4f565a.Emscripten.clang"
  },
  "schemaVersion": "3.0.1",
  "updatedAt": "2021-07-05T14:56:41.143Z",
  "devdoc": {
    "methods": {}
  },
  "userdoc": {
    "methods": {}
  }
}